:100000000C945D000C9485000C9485000C94850084
:100010000C9485000C9485000C9485000C9485004C
:100020000C9485000C9485000C9485000C9485003C
:100030000C9485000C9485000C9485000C9485002C
:100040000C9493020C9485000C9485000C9485000C
:100050000C9485000C9485000C9485000C9485000C
:100060000C9485000C94850000000008000201003B
:100070000003040700000000000000000000000072
:10008000250028002B0000000000240027002A0083
:10009000040404040404040402020202020203032E
:1000A0000303030301020408102040800102040836
:1000B00010200102040810203B0411241FBECFEFC2
:1000C000D8E0DEBFCDBF11E0A0E0B1E0EAE0FCE0A7
:1000D00002C005900D92AE36B107D9F721E0AEE629
:1000E000B1E001C01D92AF38B207E1F710E0CDE5F5
:1000F000D0E004C02197FE010E94FD05CC35D10758
:10010000C9F70E94DD020C9403060C94000090E0F5
:10011000FC01EC55FF4F249180579F4FFC018491C7
:10012000882399F090E0880F991FFC01EA57FF4F50
:10013000A591B491FC01E458FF4F859194918FB73C
:10014000F894EC91E22BEC938FBF0895AF92BF929D
:10015000CF92DF92EF92FF920F931F93CF93DF9393
:100160006C017B018B01040F151FEB015E01AE18C2
:10017000BF08C017D10759F06991D601ED91FC91E4
:100180000190F081E02DC6010995892B79F7C50111
:10019000DF91CF911F910F91FF90EF90DF90CF9063
:1001A000BF90AF90089590E0FC01E859FF4F249173
:1001B000FC01EC55FF4F3491FC01E057FF4FE491F7
:1001C000EE23C9F0222339F0233001F1A8F42130C5
:1001D00019F1223029F1F0E0EE0FFF1FE458FF4F34
:1001E000A591B4918FB7F894EC91611126C0309528
:1001F0003E233C938FBF08952730A9F02830C9F0E3
:10020000243049F7809180008F7D03C08091800069
:100210008F7780938000DFCF84B58F7784BDDBCF6D
:1002200084B58F7DFBCF8091B0008F778093B00035
:10023000D2CF8091B0008F7DF9CF3E2BDACF8E5098
:10024000806480937C0080917A00806480937A003F
:1002500080917A0086FDFCCF8091780090917900A2
:100260000895089590E080E00895FC010190002039
:10027000E9F73197AF01481B590BBC0187E791E0C3
:100280000C94A600CF93DF93EC0160E08E810E9476
:10029000D30061E08E810E94D30060E08E810E94D5
:1002A000D3008BE891E00197F1F7DF91CF910895AA
:1002B000CF92DF92EF92FF920F931F93CF93DF9332
:1002C0006C017C0187E0E80EF11CD0E0C0E0062F55
:1002D00010E0B8010C2E02C0759567950A94E2F7FC
:1002E0006170F70181917F010E94D3002196C43093
:1002F000D10579F7C601DF91CF911F910F91FF9042
:10030000EF90DF90CF900C944201CF92DF92EF926A
:10031000FF920F931F93CF93DF93EC01F62E642F80
:100320008C810E94D3008D818F3F19F060E00E9484
:10033000D3000F2D10E08F8584FF25C06E0187E06C
:10034000C80ED11CF12CE12CB8010E2C02C0759501
:1003500067950A94E2F76170F60181916F010E943E
:10036000D300FFEFEF1AFF0A88E0E816F10461F707
:10037000CE01DF91CF911F910F91FF90EF90DF9011
:10038000CF900C944201B80184E0759567958A95E9
:10039000E1F7CE010E9458016F2DCE01DF91CF9180
:1003A0001F910F91FF90EF90DF90CF900C94580128
:1003B00040E0682F87E791E00C948501CF93DF93AD
:1003C000613029F090918601986090938601609346
:1003D0008A0110928B0190E490938C0180938D019F
:1003E000805C80938E0180917B010E9487008091C8
:1003F0007C018F3F11F00E94870080917D010E9457
:100400008700C7E7D1E09E012757314080918601E0
:1004100084FD0AC084E090E02196281739073CF457
:100420008E810E948700EFCF88E090E0F5CF8BE3CC
:100430009DE00197F1F760E080917B010E94D3007D
:1004400060E080917D010E94D30080917C018F3F0C
:1004500019F060E00E94D3008091860184FD39C0CC
:1004600063E087E791E00E945801CBE4D6E4CE0137
:100470000197F1F763E087E791E00E945801219727
:10048000F1F763E087E791E00E94580183E592E08D
:100490000197F1F762E087E791E00E9458018091AF
:1004A000860180620E94D80184E0809387018CE0FD
:1004B0000E94D80181E00E94D8018BE39FE101975F
:1004C000F1F782E08093880186E0DF91CF910C9470
:1004D000D80180620E94D8018BE496E40197F1F77D
:1004E0008091860180620E94D80183E592E00197A5
:1004F000F1F78091860180620E94D801D0CF90915F
:100500008A01891710F08FEF890FE82FF0E0E95882
:10051000FE4F848980680C94D80141E00E948501D7
:1005200081E090E008951F920F920FB60F92112470
:100530002F933F938F939F93AF93BF9380917301BA
:1005400090917401A0917501B09176013091720182
:1005500023E0230F2D3758F50196A11DB11D2093DF
:1005600072018093730190937401A0937501B0930D
:10057000760180916E0190916F01A0917001B09110
:1005800071010196A11DB11D80936E0190936F01C1
:10059000A0937001B0937101BF91AF919F918F9122
:1005A0003F912F910F900FBE0F901F90189526E846
:1005B000230F0296A11DB11DD2CF789484B582601D
:1005C00084BD84B5816084BD85B5826085BD85B5F7
:1005D000816085BD80916E00816080936E00109275
:1005E00081008091810082608093810080918100F0
:1005F0008160809381008091800081608093800081
:100600008091B10084608093B1008091B0008160DE
:100610008093B00080917A00846080937A0080910A
:100620007A00826080937A0080917A008160809362
:100630007A0080917A00806880937A001092C100DD
:1006400087E00E9487008FE00E94870080E10E947F
:10065000870082E10E94870064E084E10E94DE015D
:1006600000E010E08EE00E941F016C0183E10E9417
:100670001F017C0181E10E941F01EC01B601DD0C2C
:10068000880B990B0E94040520E030E040EA50E41A
:100690000E94900520E030EC4FE754E40E945A0499
:1006A00020E030E040EA50E40E9490050E94CC0433
:1006B000683071055CF161E08FE00E94D30060E07A
:1006C00080E10E94D30060E082E10E94D30060E0FC
:1006D00087E00E94D30080E00E947F028CE091E0DE
:1006E0000E94350181E00E947F028EE191E00E942C
:1006F000350182E00E947F028AE291E00E9435018A
:1007000083E00E947F0283E391E088C0B701FF0C81
:10071000880B990B0E94040520E030E040EA50E489
:100720000E94900520E030EC4FE754E40E945A0408
:1007300020E030E040EA50E40E9490050E94CC04A2
:100740006830710524F160E08FE00E94D30061E021
:1007500080E10E94D30060E082E10E94D30061E06A
:1007600087E00E94D30080E00E947F028CE091E04D
:100770000E94350181E00E947F0282E491E00E94A4
:10078000350182E00E947F028FE491E0B7CFBE0185
:10079000DD0F880B990B0E94040520E030E040EA51
:1007A00050E40E94900520E030EC4FE754E40E94B2
:1007B0005A0420E030E040EA50E40E9490050E9494
:1007C000CC04683071059CF160E08FE00E94D3009A
:1007D00060E080E10E94D30061E082E10E94D300EA
:1007E00060E087E00E94D30080E00E947F028CE0FE
:1007F00091E00E94350181E00E947F0282E491E055
:100800000E94350182E00E947F028AE291E00E940C
:10081000350183E00E947F0287E591E00E94350167
:100820000115110509F41ECF0E9400001BCF60E0E6
:100830008FE00E94D30060E080E10E94D30060E07E
:1008400082E10E94D30060E087E00E94D30080E054
:100850000E947F028CE091E00E94350181E00E94BD
:100860007F0282E491E00E94350182E00E947F02D3
:1008700085E691E043CFE7E7F1E01382128284E05E
:1008800091E0918380838DE084838FEF85838CE07A
:1008900086838BE087838AE0808789E0818788E090
:1008A00082871386148615861686178661E080E196
:1008B0000C94DE010E946E040C9456050E944F05B4
:1008C00058F00E94480540F029F45F3F29F00C944D
:1008D0003F0551110C948A050C9445050E9467054B
:1008E00068F39923B1F3552391F3951B550BBB275F
:1008F000AA2762177307840738F09F5F5F4F220FA4
:10090000331F441FAA1FA9F335D00E2E3AF0E0E89A
:1009100032D091505040E695001CCAF72BD0FE2FE4
:1009200029D0660F771F881FBB1F26173707480778
:10093000AB07B0E809F0BB0B802DBF01FF27935830
:100940005F4F3AF09E3F510578F00C943F050C94B0
:100950008A055F3FE4F3983ED4F3869577956795D3
:10096000B795F7959F5FC9F7880F911D9695879565
:1009700097F90895E1E0660F771F881FBB1F621784
:1009800073078407BA0720F0621B730B840BBA0B42
:10099000EE1F88F7E09508950E94D3046894B11182
:1009A0000C948A0508950E946F0588F09F5798F06F
:1009B000B92F9927B751B0F0E1F0660F771F881F64
:1009C000991F1AF0BA95C9F714C0B13091F00E947E
:1009D0008905B1E008950C948905672F782F882741
:1009E000B85F39F0B93FCCF3869577956795B395A5
:1009F000D9F73EF490958095709561957F4F8F4F14
:100A00009F4F0895E89409C097FB3EF49095809518
:100A1000709561957F4F8F4F9F4F9923A9F0F92FC4
:100A200096E9BB279395F695879577956795B79542
:100A3000F111F8CFFAF4BB0F11F460FF1BC06F5F28
:100A40007F4F8F4F9F4F16C0882311F096E911C03A
:100A5000772321F09EE8872F762F05C0662371F05B
:100A600096E8862F70E060E02AF09A95660F771F6F
:100A7000881FDAF7880F9695879597F9089597F963
:100A80009F6780E870E060E008959FEF80EC089534
:100A900000240A941616170618060906089500245D
:100AA0000A9412161306140605060895092E0394D7
:100AB000000C11F4882352F0BB0F40F4BF2B11F44B
:100AC00060FF04C06F5F7F4F8F4F9F4F089557FDAA
:100AD0009058440F551F59F05F3F71F04795880FAC
:100AE00097FB991F61F09F3F79F087950895121643
:100AF00013061406551FF2CF4695F1DF08C01616EF
:100B000017061806991FF1CF86957105610508949F
:100B10000895E894BB2766277727CB0197F90895B6
:100B20000E94A3050C9456050E94480538F00E94C7
:100B30004F0520F0952311F00C943F050C944505CA
:100B400011240C948A050E94670570F3959FC1F3E8
:100B5000950F50E0551F629FF001729FBB27F00D6B
:100B6000B11D639FAA27F00DB11DAA1F649F6627C0
:100B7000B00DA11D661F829F2227B00DA11D621F0F
:100B8000739FB00DA11D621F839FA00D611D221FC9
:100B9000749F3327A00D611D231F849F600D211DAD
:100BA000822F762F6A2F11249F5750409AF0F1F030
:100BB00088234AF0EE0FFF1FBB1F661F771F881F99
:100BC00091505040A9F79E3F510580F00C943F058D
:100BD0000C948A055F3FE4F3983ED4F386957795AD
:100BE0006795B795F795E7959F5FC1F7FE2B880F3F
:100BF000911D9695879597F90895EE0FFF1F059023
:0A0C0000F491E02D0994F894FFCF61
:100C0A00000000008D02A60032013101544F424912
:100C1A002050524F4A4543542020202020004D4165
:100C2A00494E533A204F4E20200047454E3A204F16
:100C3A00464600494E5645525445523A204F46467A
:100C4A0020004D41494E533A204F46462020004746
:100C5A00454E3A204F4E00494E5645525445523A57
:0E0C6A00204F4E200047454E3A2030464600AF
:107E0000112484B714BE81FFF0D085E080938100F7
:107E100082E08093C00088E18093C10086E0809377
:107E2000C20080E18093C4008EE0C9D0259A86E02C
:107E300020E33CEF91E0309385002093840096BBD3
:107E4000B09BFECF1D9AA8958150A9F7CC24DD24C4
:107E500088248394B5E0AB2EA1E19A2EF3E0BF2EE7
:107E6000A2D0813461F49FD0082FAFD0023811F036
:107E7000013811F484E001C083E08DD089C08234E0
:107E800011F484E103C0853419F485E0A6D080C0E4
:107E9000853579F488D0E82EFF2485D0082F10E0AE
:107EA000102F00270E291F29000F111F8ED06801E7
:107EB0006FC0863521F484E090D080E0DECF843638
:107EC00009F040C070D06FD0082F6DD080E0C81688
:107ED00080E7D80618F4F601B7BEE895C0E0D1E017
:107EE00062D089930C17E1F7F0E0CF16F0E7DF06D8
:107EF00018F0F601B7BEE89568D007B600FCFDCFD4
:107F0000A601A0E0B1E02C9130E011968C91119780
:107F100090E0982F8827822B932B1296FA010C0160
:107F200087BEE89511244E5F5F4FF1E0A038BF0790
:107F300051F7F601A7BEE89507B600FCFDCF97BE46
:107F4000E89526C08437B1F42ED02DD0F82E2BD052
:107F50003CD0F601EF2C8F010F5F1F4F84911BD097
:107F6000EA94F801C1F70894C11CD11CFA94CF0C13
:107F7000D11C0EC0853739F428D08EE10CD085E9AC
:107F80000AD08FE07ACF813511F488E018D01DD067
:107F900080E101D065CF982F8091C00085FFFCCF94
:107FA0009093C60008958091C00087FFFCCF809118
:107FB000C00084FD01C0A8958091C6000895E0E648
:107FC000F0E098E1908380830895EDDF803219F02E
:107FD00088E0F5DFFFCF84E1DECF1F93182FE3DFCA
:107FE0001150E9F7F2DF1F91089580E0E8DFEE27F6
:047FF000FF270994CA
:027FFE00040479
:0400000300007E007B
:00000001FF
